{
  "contractName": "EventNFT",
  "abi": [
    {
      "inputs": [
        {
          "internalType": "uint256",
          "name": "maxTicketsCount",
          "type": "uint256"
        },
        {
          "internalType": "uint256",
          "name": "singleTicketCost",
          "type": "uint256"
        },
        {
          "internalType": "string",
          "name": "tokenURI",
          "type": "string"
        },
        {
          "internalType": "string",
          "name": "eventName",
          "type": "string"
        },
        {
          "internalType": "string",
          "name": "eventSymbol",
          "type": "string"
        }
      ],
      "stateMutability": "nonpayable",
      "type": "constructor"
    },
    {
      "anonymous": false,
      "inputs": [
        {
          "indexed": true,
          "internalType": "address",
          "name": "owner",
          "type": "address"
        },
        {
          "indexed": true,
          "internalType": "address",
          "name": "approved",
          "type": "address"
        },
        {
          "indexed": true,
          "internalType": "uint256",
          "name": "tokenId",
          "type": "uint256"
        }
      ],
      "name": "Approval",
      "type": "event"
    },
    {
      "anonymous": false,
      "inputs": [
        {
          "indexed": true,
          "internalType": "address",
          "name": "owner",
          "type": "address"
        },
        {
          "indexed": true,
          "internalType": "address",
          "name": "operator",
          "type": "address"
        },
        {
          "indexed": false,
          "internalType": "bool",
          "name": "approved",
          "type": "bool"
        }
      ],
      "name": "ApprovalForAll",
      "type": "event"
    },
    {
      "anonymous": false,
      "inputs": [
        {
          "indexed": true,
          "internalType": "address",
          "name": "from",
          "type": "address"
        },
        {
          "indexed": true,
          "internalType": "address",
          "name": "to",
          "type": "address"
        },
        {
          "indexed": true,
          "internalType": "uint256",
          "name": "tokenId",
          "type": "uint256"
        }
      ],
      "name": "Transfer",
      "type": "event"
    },
    {
      "inputs": [
        {
          "internalType": "address",
          "name": "to",
          "type": "address"
        },
        {
          "internalType": "uint256",
          "name": "tokenId",
          "type": "uint256"
        }
      ],
      "name": "approve",
      "outputs": [],
      "stateMutability": "nonpayable",
      "type": "function"
    },
    {
      "inputs": [
        {
          "internalType": "address",
          "name": "owner",
          "type": "address"
        }
      ],
      "name": "balanceOf",
      "outputs": [
        {
          "internalType": "uint256",
          "name": "",
          "type": "uint256"
        }
      ],
      "stateMutability": "view",
      "type": "function",
      "constant": true
    },
    {
      "inputs": [
        {
          "internalType": "uint256",
          "name": "tokenId",
          "type": "uint256"
        }
      ],
      "name": "getApproved",
      "outputs": [
        {
          "internalType": "address",
          "name": "",
          "type": "address"
        }
      ],
      "stateMutability": "view",
      "type": "function",
      "constant": true
    },
    {
      "inputs": [
        {
          "internalType": "address",
          "name": "owner",
          "type": "address"
        },
        {
          "internalType": "address",
          "name": "operator",
          "type": "address"
        }
      ],
      "name": "isApprovedForAll",
      "outputs": [
        {
          "internalType": "bool",
          "name": "",
          "type": "bool"
        }
      ],
      "stateMutability": "view",
      "type": "function",
      "constant": true
    },
    {
      "inputs": [],
      "name": "name",
      "outputs": [
        {
          "internalType": "string",
          "name": "",
          "type": "string"
        }
      ],
      "stateMutability": "view",
      "type": "function",
      "constant": true
    },
    {
      "inputs": [
        {
          "internalType": "uint256",
          "name": "tokenId",
          "type": "uint256"
        }
      ],
      "name": "ownerOf",
      "outputs": [
        {
          "internalType": "address",
          "name": "",
          "type": "address"
        }
      ],
      "stateMutability": "view",
      "type": "function",
      "constant": true
    },
    {
      "inputs": [
        {
          "internalType": "address",
          "name": "from",
          "type": "address"
        },
        {
          "internalType": "address",
          "name": "to",
          "type": "address"
        },
        {
          "internalType": "uint256",
          "name": "tokenId",
          "type": "uint256"
        }
      ],
      "name": "safeTransferFrom",
      "outputs": [],
      "stateMutability": "nonpayable",
      "type": "function"
    },
    {
      "inputs": [
        {
          "internalType": "address",
          "name": "from",
          "type": "address"
        },
        {
          "internalType": "address",
          "name": "to",
          "type": "address"
        },
        {
          "internalType": "uint256",
          "name": "tokenId",
          "type": "uint256"
        },
        {
          "internalType": "bytes",
          "name": "_data",
          "type": "bytes"
        }
      ],
      "name": "safeTransferFrom",
      "outputs": [],
      "stateMutability": "nonpayable",
      "type": "function"
    },
    {
      "inputs": [
        {
          "internalType": "address",
          "name": "operator",
          "type": "address"
        },
        {
          "internalType": "bool",
          "name": "approved",
          "type": "bool"
        }
      ],
      "name": "setApprovalForAll",
      "outputs": [],
      "stateMutability": "nonpayable",
      "type": "function"
    },
    {
      "inputs": [
        {
          "internalType": "bytes4",
          "name": "interfaceId",
          "type": "bytes4"
        }
      ],
      "name": "supportsInterface",
      "outputs": [
        {
          "internalType": "bool",
          "name": "",
          "type": "bool"
        }
      ],
      "stateMutability": "view",
      "type": "function",
      "constant": true
    },
    {
      "inputs": [],
      "name": "symbol",
      "outputs": [
        {
          "internalType": "string",
          "name": "",
          "type": "string"
        }
      ],
      "stateMutability": "view",
      "type": "function",
      "constant": true
    },
    {
      "inputs": [
        {
          "internalType": "uint256",
          "name": "tokenId",
          "type": "uint256"
        }
      ],
      "name": "tokenURI",
      "outputs": [
        {
          "internalType": "string",
          "name": "",
          "type": "string"
        }
      ],
      "stateMutability": "view",
      "type": "function",
      "constant": true
    },
    {
      "inputs": [
        {
          "internalType": "address",
          "name": "from",
          "type": "address"
        },
        {
          "internalType": "address",
          "name": "to",
          "type": "address"
        },
        {
          "internalType": "uint256",
          "name": "tokenId",
          "type": "uint256"
        }
      ],
      "name": "transferFrom",
      "outputs": [],
      "stateMutability": "nonpayable",
      "type": "function"
    },
    {
      "inputs": [],
      "name": "totalTickets",
      "outputs": [
        {
          "internalType": "uint256",
          "name": "",
          "type": "uint256"
        }
      ],
      "stateMutability": "view",
      "type": "function",
      "constant": true
    },
    {
      "inputs": [],
      "name": "ticketCost",
      "outputs": [
        {
          "internalType": "uint256",
          "name": "",
          "type": "uint256"
        }
      ],
      "stateMutability": "view",
      "type": "function",
      "constant": true
    },
    {
      "inputs": [],
      "name": "ticketsLeft",
      "outputs": [
        {
          "internalType": "uint256",
          "name": "",
          "type": "uint256"
        }
      ],
      "stateMutability": "view",
      "type": "function",
      "constant": true
    },
    {
      "inputs": [],
      "name": "getTicketInfo",
      "outputs": [
        {
          "internalType": "string",
          "name": "",
          "type": "string"
        }
      ],
      "stateMutability": "view",
      "type": "function",
      "constant": true
    },
    {
      "inputs": [],
      "name": "buyTicket",
      "outputs": [
        {
          "internalType": "uint256",
          "name": "",
          "type": "uint256"
        }
      ],
      "stateMutability": "payable",
      "type": "function",
      "payable": true
    }
  ],
  "bytecode": "0x60806040523480156200001157600080fd5b50604051620034ef380380620034ef83398181016040528101906200003791906200037d565b8181816000908051906020019062000051929190620000f5565b5080600190805190602001906200006a929190620000f5565b50505084600881905550670de0b6b3a7640000846200008a919062000491565b600b819055508260099080519060200190620000a8929190620000f5565b5033600a60006101000a81548173ffffffffffffffffffffffffffffffffffffffff021916908373ffffffffffffffffffffffffffffffffffffffff160217905550505050505062000557565b828054620001039062000521565b90600052602060002090601f01602090048101928262000127576000855562000173565b82601f106200014257805160ff191683800117855562000173565b8280016001018555821562000173579182015b828111156200017257825182559160200191906001019062000155565b5b50905062000182919062000186565b5090565b5b80821115620001a157600081600090555060010162000187565b5090565b6000604051905090565b600080fd5b600080fd5b6000819050919050565b620001ce81620001b9565b8114620001da57600080fd5b50565b600081519050620001ee81620001c3565b92915050565b600080fd5b600080fd5b6000601f19601f8301169050919050565b7f4e487b7100000000000000000000000000000000000000000000000000000000600052604160045260246000fd5b6200024982620001fe565b810181811067ffffffffffffffff821117156200026b576200026a6200020f565b5b80604052505050565b600062000280620001a5565b90506200028e82826200023e565b919050565b600067ffffffffffffffff821115620002b157620002b06200020f565b5b620002bc82620001fe565b9050602081019050919050565b60005b83811015620002e9578082015181840152602081019050620002cc565b83811115620002f9576000848401525b50505050565b600062000316620003108462000293565b62000274565b905082815260208101848484011115620003355762000334620001f9565b5b62000342848285620002c9565b509392505050565b600082601f830112620003625762000361620001f4565b5b815162000374848260208601620002ff565b91505092915050565b600080600080600060a086880312156200039c576200039b620001af565b5b6000620003ac88828901620001dd565b9550506020620003bf88828901620001dd565b945050604086015167ffffffffffffffff811115620003e357620003e2620001b4565b5b620003f1888289016200034a565b935050606086015167ffffffffffffffff811115620004155762000414620001b4565b5b62000423888289016200034a565b925050608086015167ffffffffffffffff811115620004475762000446620001b4565b5b62000455888289016200034a565b9150509295509295909350565b7f4e487b7100000000000000000000000000000000000000000000000000000000600052601160045260246000fd5b60006200049e82620001b9565b9150620004ab83620001b9565b9250817fffffffffffffffffffffffffffffffffffffffffffffffffffffffffffffffff0483118215151615620004e757620004e662000462565b5b828202905092915050565b7f4e487b7100000000000000000000000000000000000000000000000000000000600052602260045260246000fd5b600060028204905060018216806200053a57607f821691505b60208210811415620005515762000550620004f2565b5b50919050565b612f8880620005676000396000f3fe6080604052600436106101095760003560e01c806370a0823111610095578063c87b56dd11610064578063c87b56dd1461037b578063dd11247e146103b8578063e885a0df146103e3578063e985e9c51461040e578063edca914c1461044b57610109565b806370a08231146102c157806395d89b41146102fe578063a22cb46514610329578063b88d4fde1461035257610109565b80631eecd934116100dc5780631eecd934146101dc57806323b872dd1461020757806342842e0e146102305780636352211e146102595780636cab5e5b1461029657610109565b806301ffc9a71461010e57806306fdde031461014b578063081812fc14610176578063095ea7b3146101b3575b600080fd5b34801561011a57600080fd5b5061013560048036038101906101309190611d0f565b610469565b6040516101429190611d57565b60405180910390f35b34801561015757600080fd5b5061016061054b565b60405161016d9190611e0b565b60405180910390f35b34801561018257600080fd5b5061019d60048036038101906101989190611e63565b6105dd565b6040516101aa9190611ed1565b60405180910390f35b3480156101bf57600080fd5b506101da60048036038101906101d59190611f18565b610662565b005b3480156101e857600080fd5b506101f161077a565b6040516101fe9190611f67565b60405180910390f35b34801561021357600080fd5b5061022e60048036038101906102299190611f82565b610784565b005b34801561023c57600080fd5b5061025760048036038101906102529190611f82565b6107e4565b005b34801561026557600080fd5b50610280600480360381019061027b9190611e63565b610804565b60405161028d9190611ed1565b60405180910390f35b3480156102a257600080fd5b506102ab6108b6565b6040516102b89190611f67565b60405180910390f35b3480156102cd57600080fd5b506102e860048036038101906102e39190611fd5565b6108d4565b6040516102f59190611f67565b60405180910390f35b34801561030a57600080fd5b5061031361098c565b6040516103209190611e0b565b60405180910390f35b34801561033557600080fd5b50610350600480360381019061034b919061202e565b610a1e565b005b34801561035e57600080fd5b50610379600480360381019061037491906121a3565b610b9f565b005b34801561038757600080fd5b506103a2600480360381019061039d9190611e63565b610c01565b6040516103af9190611e0b565b60405180910390f35b3480156103c457600080fd5b506103cd610d53565b6040516103da9190611f67565b60405180910390f35b3480156103ef57600080fd5b506103f8610d5d565b6040516104059190611e0b565b60405180910390f35b34801561041a57600080fd5b5061043560048036038101906104309190612226565b610def565b6040516104429190611d57565b60405180910390f35b610453610e83565b6040516104609190611f67565b60405180910390f35b60007f80ac58cd000000000000000000000000000000000000000000000000000000007bffffffffffffffffffffffffffffffffffffffffffffffffffffffff1916827bffffffffffffffffffffffffffffffffffffffffffffffffffffffff1916148061053457507f5b5e139f000000000000000000000000000000000000000000000000000000007bffffffffffffffffffffffffffffffffffffffffffffffffffffffff1916827bffffffffffffffffffffffffffffffffffffffffffffffffffffffff1916145b8061054457506105438261109f565b5b9050919050565b60606000805461055a90612295565b80601f016020809104026020016040519081016040528092919081815260200182805461058690612295565b80156105d35780601f106105a8576101008083540402835291602001916105d3565b820191906000526020600020905b8154815290600101906020018083116105b657829003601f168201915b5050505050905090565b60006105e882611109565b610627576040517f08c379a000000000000000000000000000000000000000000000000000000000815260040161061e90612339565b60405180910390fd5b6004600083815260200190815260200160002060009054906101000a900473ffffffffffffffffffffffffffffffffffffffff169050919050565b600061066d82610804565b90508073ffffffffffffffffffffffffffffffffffffffff168373ffffffffffffffffffffffffffffffffffffffff1614156106de576040517f08c379a00000000000000000000000000000000000000000000000000000000081526004016106d5906123cb565b60405180910390fd5b8073ffffffffffffffffffffffffffffffffffffffff166106fd611175565b73ffffffffffffffffffffffffffffffffffffffff16148061072c575061072b81610726611175565b610def565b5b61076b576040517f08c379a00000000000000000000000000000000000000000000000000000000081526004016107629061245d565b60405180910390fd5b610775838361117d565b505050565b6000600b54905090565b61079561078f611175565b82611236565b6107d4576040517f08c379a00000000000000000000000000000000000000000000000000000000081526004016107cb906124ef565b60405180910390fd5b6107df838383611314565b505050565b6107ff83838360405180602001604052806000815250610b9f565b505050565b6000806002600084815260200190815260200160002060009054906101000a900473ffffffffffffffffffffffffffffffffffffffff169050600073ffffffffffffffffffffffffffffffffffffffff168173ffffffffffffffffffffffffffffffffffffffff1614156108ad576040517f08c379a00000000000000000000000000000000000000000000000000000000081526004016108a490612581565b60405180910390fd5b80915050919050565b60006108c26007611570565b6008546108cf91906125d0565b905090565b60008073ffffffffffffffffffffffffffffffffffffffff168273ffffffffffffffffffffffffffffffffffffffff161415610945576040517f08c379a000000000000000000000000000000000000000000000000000000000815260040161093c90612676565b60405180910390fd5b600360008373ffffffffffffffffffffffffffffffffffffffff1673ffffffffffffffffffffffffffffffffffffffff168152602001908152602001600020549050919050565b60606001805461099b90612295565b80601f01602080910402602001604051908101604052809291908181526020018280546109c790612295565b8015610a145780601f106109e957610100808354040283529160200191610a14565b820191906000526020600020905b8154815290600101906020018083116109f757829003601f168201915b5050505050905090565b610a26611175565b73ffffffffffffffffffffffffffffffffffffffff168273ffffffffffffffffffffffffffffffffffffffff161415610a94576040517f08c379a0000000000000000000000000000000000000000000000000000000008152600401610a8b906126e2565b60405180910390fd5b8060056000610aa1611175565b73ffffffffffffffffffffffffffffffffffffffff1673ffffffffffffffffffffffffffffffffffffffff16815260200190815260200160002060008473ffffffffffffffffffffffffffffffffffffffff1673ffffffffffffffffffffffffffffffffffffffff16815260200190815260200160002060006101000a81548160ff0219169083151502179055508173ffffffffffffffffffffffffffffffffffffffff16610b4e611175565b73ffffffffffffffffffffffffffffffffffffffff167f17307eab39ab6107e8899845ad3d59bd9653f200f220920489ca2b5937696c3183604051610b939190611d57565b60405180910390a35050565b610bb0610baa611175565b83611236565b610bef576040517f08c379a0000000000000000000000000000000000000000000000000000000008152600401610be6906124ef565b60405180910390fd5b610bfb8484848461157e565b50505050565b6060610c0c82611109565b610c4b576040517f08c379a0000000000000000000000000000000000000000000000000000000008152600401610c4290612774565b60405180910390fd5b6000600660008481526020019081526020016000208054610c6b90612295565b80601f0160208091040260200160405190810160405280929190818152602001828054610c9790612295565b8015610ce45780601f10610cb957610100808354040283529160200191610ce4565b820191906000526020600020905b815481529060010190602001808311610cc757829003601f168201915b505050505090506000610cf56115da565b9050600081511415610d0b578192505050610d4e565b600082511115610d40578082604051602001610d289291906127d0565b60405160208183030381529060405292505050610d4e565b610d49846115f1565b925050505b919050565b6000600854905090565b606060098054610d6c90612295565b80601f0160208091040260200160405190810160405280929190818152602001828054610d9890612295565b8015610de55780601f10610dba57610100808354040283529160200191610de5565b820191906000526020600020905b815481529060010190602001808311610dc857829003601f168201915b5050505050905090565b6000600560008473ffffffffffffffffffffffffffffffffffffffff1673ffffffffffffffffffffffffffffffffffffffff16815260200190815260200160002060008373ffffffffffffffffffffffffffffffffffffffff1673ffffffffffffffffffffffffffffffffffffffff16815260200190815260200160002060009054906101000a900460ff16905092915050565b600034600b54811015610ecb576040517f08c379a0000000000000000000000000000000000000000000000000000000008152600401610ec290612840565b60405180910390fd5b610ed56007611698565b6000610ee16007611570565b90506001600854610ef29190612860565b811115610f34576040517f08c379a0000000000000000000000000000000000000000000000000000000008152600401610f2b90612902565b60405180910390fd5b610f3e33826116ae565b610fd28160098054610f4f90612295565b80601f0160208091040260200160405190810160405280929190818152602001828054610f7b90612295565b8015610fc85780601f10610f9d57610100808354040283529160200191610fc8565b820191906000526020600020905b815481529060010190602001808311610fab57829003601f168201915b505050505061187c565b6000600b5434610fe291906125d0565b90503373ffffffffffffffffffffffffffffffffffffffff166108fc829081150290604051600060405180830381858888f1935050505015801561102a573d6000803e3d6000fd5b50600a60009054906101000a900473ffffffffffffffffffffffffffffffffffffffff1673ffffffffffffffffffffffffffffffffffffffff166108fc600b549081150290604051600060405180830381858888f19350505050158015611095573d6000803e3d6000fd5b5081935050505090565b60007f01ffc9a7000000000000000000000000000000000000000000000000000000007bffffffffffffffffffffffffffffffffffffffffffffffffffffffff1916827bffffffffffffffffffffffffffffffffffffffffffffffffffffffff1916149050919050565b60008073ffffffffffffffffffffffffffffffffffffffff166002600084815260200190815260200160002060009054906101000a900473ffffffffffffffffffffffffffffffffffffffff1673ffffffffffffffffffffffffffffffffffffffff1614159050919050565b600033905090565b816004600083815260200190815260200160002060006101000a81548173ffffffffffffffffffffffffffffffffffffffff021916908373ffffffffffffffffffffffffffffffffffffffff160217905550808273ffffffffffffffffffffffffffffffffffffffff166111f083610804565b73ffffffffffffffffffffffffffffffffffffffff167f8c5be1e5ebec7d5bd14f71427d1e84f3dd0314c0f7b2291e5b200ac8c7c3b92560405160405180910390a45050565b600061124182611109565b611280576040517f08c379a000000000000000000000000000000000000000000000000000000000815260040161127790612994565b60405180910390fd5b600061128b83610804565b90508073ffffffffffffffffffffffffffffffffffffffff168473ffffffffffffffffffffffffffffffffffffffff1614806112fa57508373ffffffffffffffffffffffffffffffffffffffff166112e2846105dd565b73ffffffffffffffffffffffffffffffffffffffff16145b8061130b575061130a8185610def565b5b91505092915050565b8273ffffffffffffffffffffffffffffffffffffffff1661133482610804565b73ffffffffffffffffffffffffffffffffffffffff161461138a576040517f08c379a000000000000000000000000000000000000000000000000000000000815260040161138190612a26565b60405180910390fd5b600073ffffffffffffffffffffffffffffffffffffffff168273ffffffffffffffffffffffffffffffffffffffff1614156113fa576040517f08c379a00000000000000000000000000000000000000000000000000000000081526004016113f190612ab8565b60405180910390fd5b6114058383836118f0565b61141060008261117d565b6001600360008573ffffffffffffffffffffffffffffffffffffffff1673ffffffffffffffffffffffffffffffffffffffff168152602001908152602001600020600082825461146091906125d0565b925050819055506001600360008473ffffffffffffffffffffffffffffffffffffffff1673ffffffffffffffffffffffffffffffffffffffff16815260200190815260200160002060008282546114b79190612860565b92505081905550816002600083815260200190815260200160002060006101000a81548173ffffffffffffffffffffffffffffffffffffffff021916908373ffffffffffffffffffffffffffffffffffffffff160217905550808273ffffffffffffffffffffffffffffffffffffffff168473ffffffffffffffffffffffffffffffffffffffff167fddf252ad1be2c89b69c2b068fc378daa952ba7f163c4a11628f55a4df523b3ef60405160405180910390a4505050565b600081600001549050919050565b611589848484611314565b611595848484846118f5565b6115d4576040517f08c379a00000000000000000000000000000000000000000000000000000000081526004016115cb90612b4a565b60405180910390fd5b50505050565b606060405180602001604052806000815250905090565b60606115fc82611109565b61163b576040517f08c379a000000000000000000000000000000000000000000000000000000000815260040161163290612bdc565b60405180910390fd5b60006116456115da565b905060008151116116655760405180602001604052806000815250611690565b8061166f84611a8c565b6040516020016116809291906127d0565b6040516020818303038152906040525b915050919050565b6001816000016000828254019250508190555050565b600073ffffffffffffffffffffffffffffffffffffffff168273ffffffffffffffffffffffffffffffffffffffff16141561171e576040517f08c379a000000000000000000000000000000000000000000000000000000000815260040161171590612c48565b60405180910390fd5b61172781611109565b15611767576040517f08c379a000000000000000000000000000000000000000000000000000000000815260040161175e90612cb4565b60405180910390fd5b611773600083836118f0565b6001600360008473ffffffffffffffffffffffffffffffffffffffff1673ffffffffffffffffffffffffffffffffffffffff16815260200190815260200160002060008282546117c39190612860565b92505081905550816002600083815260200190815260200160002060006101000a81548173ffffffffffffffffffffffffffffffffffffffff021916908373ffffffffffffffffffffffffffffffffffffffff160217905550808273ffffffffffffffffffffffffffffffffffffffff16600073ffffffffffffffffffffffffffffffffffffffff167fddf252ad1be2c89b69c2b068fc378daa952ba7f163c4a11628f55a4df523b3ef60405160405180910390a45050565b61188582611109565b6118c4576040517f08c379a00000000000000000000000000000000000000000000000000000000081526004016118bb90612d46565b60405180910390fd5b806006600084815260200190815260200160002090805190602001906118eb929190611c00565b505050565b505050565b60006119168473ffffffffffffffffffffffffffffffffffffffff16611bed565b15611a7f578373ffffffffffffffffffffffffffffffffffffffff1663150b7a0261193f611175565b8786866040518563ffffffff1660e01b81526004016119619493929190612dbb565b602060405180830381600087803b15801561197b57600080fd5b505af19250505080156119ac57506040513d601f19601f820116820180604052508101906119a99190612e1c565b60015b611a2f573d80600081146119dc576040519150601f19603f3d011682016040523d82523d6000602084013e6119e1565b606091505b50600081511415611a27576040517f08c379a0000000000000000000000000000000000000000000000000000000008152600401611a1e90612b4a565b60405180910390fd5b805181602001fd5b63150b7a0260e01b7bffffffffffffffffffffffffffffffffffffffffffffffffffffffff1916817bffffffffffffffffffffffffffffffffffffffffffffffffffffffff191614915050611a84565b600190505b949350505050565b60606000821415611ad4576040518060400160405280600181526020017f30000000000000000000000000000000000000000000000000000000000000008152509050611be8565b600082905060005b60008214611b06578080611aef90612e49565b915050600a82611aff9190612ec1565b9150611adc565b60008167ffffffffffffffff811115611b2257611b21612078565b5b6040519080825280601f01601f191660200182016040528015611b545781602001600182028036833780820191505090505b5090505b60008514611be157600182611b6d91906125d0565b9150600a85611b7c9190612ef2565b6030611b889190612860565b60f81b818381518110611b9e57611b9d612f23565b5b60200101907effffffffffffffffffffffffffffffffffffffffffffffffffffffffffffff1916908160001a905350600a85611bda9190612ec1565b9450611b58565b8093505050505b919050565b600080823b905060008111915050919050565b828054611c0c90612295565b90600052602060002090601f016020900481019282611c2e5760008555611c75565b82601f10611c4757805160ff1916838001178555611c75565b82800160010185558215611c75579182015b82811115611c74578251825591602001919060010190611c59565b5b509050611c829190611c86565b5090565b5b80821115611c9f576000816000905550600101611c87565b5090565b6000604051905090565b600080fd5b600080fd5b60007fffffffff0000000000000000000000000000000000000000000000000000000082169050919050565b611cec81611cb7565b8114611cf757600080fd5b50565b600081359050611d0981611ce3565b92915050565b600060208284031215611d2557611d24611cad565b5b6000611d3384828501611cfa565b91505092915050565b60008115159050919050565b611d5181611d3c565b82525050565b6000602082019050611d6c6000830184611d48565b92915050565b600081519050919050565b600082825260208201905092915050565b60005b83811015611dac578082015181840152602081019050611d91565b83811115611dbb576000848401525b50505050565b6000601f19601f8301169050919050565b6000611ddd82611d72565b611de78185611d7d565b9350611df7818560208601611d8e565b611e0081611dc1565b840191505092915050565b60006020820190508181036000830152611e258184611dd2565b905092915050565b6000819050919050565b611e4081611e2d565b8114611e4b57600080fd5b50565b600081359050611e5d81611e37565b92915050565b600060208284031215611e7957611e78611cad565b5b6000611e8784828501611e4e565b91505092915050565b600073ffffffffffffffffffffffffffffffffffffffff82169050919050565b6000611ebb82611e90565b9050919050565b611ecb81611eb0565b82525050565b6000602082019050611ee66000830184611ec2565b92915050565b611ef581611eb0565b8114611f0057600080fd5b50565b600081359050611f1281611eec565b92915050565b60008060408385031215611f2f57611f2e611cad565b5b6000611f3d85828601611f03565b9250506020611f4e85828601611e4e565b9150509250929050565b611f6181611e2d565b82525050565b6000602082019050611f7c6000830184611f58565b92915050565b600080600060608486031215611f9b57611f9a611cad565b5b6000611fa986828701611f03565b9350506020611fba86828701611f03565b9250506040611fcb86828701611e4e565b9150509250925092565b600060208284031215611feb57611fea611cad565b5b6000611ff984828501611f03565b91505092915050565b61200b81611d3c565b811461201657600080fd5b50565b60008135905061202881612002565b92915050565b6000806040838503121561204557612044611cad565b5b600061205385828601611f03565b925050602061206485828601612019565b9150509250929050565b600080fd5b600080fd5b7f4e487b7100000000000000000000000000000000000000000000000000000000600052604160045260246000fd5b6120b082611dc1565b810181811067ffffffffffffffff821117156120cf576120ce612078565b5b80604052505050565b60006120e2611ca3565b90506120ee82826120a7565b919050565b600067ffffffffffffffff82111561210e5761210d612078565b5b61211782611dc1565b9050602081019050919050565b82818337600083830152505050565b6000612146612141846120f3565b6120d8565b90508281526020810184848401111561216257612161612073565b5b61216d848285612124565b509392505050565b600082601f83011261218a5761218961206e565b5b813561219a848260208601612133565b91505092915050565b600080600080608085870312156121bd576121bc611cad565b5b60006121cb87828801611f03565b94505060206121dc87828801611f03565b93505060406121ed87828801611e4e565b925050606085013567ffffffffffffffff81111561220e5761220d611cb2565b5b61221a87828801612175565b91505092959194509250565b6000806040838503121561223d5761223c611cad565b5b600061224b85828601611f03565b925050602061225c85828601611f03565b9150509250929050565b7f4e487b7100000000000000000000000000000000000000000000000000000000600052602260045260246000fd5b600060028204905060018216806122ad57607f821691505b602082108114156122c1576122c0612266565b5b50919050565b7f4552433732313a20617070726f76656420717565727920666f72206e6f6e657860008201527f697374656e7420746f6b656e0000000000000000000000000000000000000000602082015250565b6000612323602c83611d7d565b915061232e826122c7565b604082019050919050565b6000602082019050818103600083015261235281612316565b9050919050565b7f4552433732313a20617070726f76616c20746f2063757272656e74206f776e6560008201527f7200000000000000000000000000000000000000000000000000000000000000602082015250565b60006123b5602183611d7d565b91506123c082612359565b604082019050919050565b600060208201905081810360008301526123e4816123a8565b9050919050565b7f4552433732313a20617070726f76652063616c6c6572206973206e6f74206f7760008201527f6e6572206e6f7220617070726f76656420666f7220616c6c0000000000000000602082015250565b6000612447603883611d7d565b9150612452826123eb565b604082019050919050565b600060208201905081810360008301526124768161243a565b9050919050565b7f4552433732313a207472616e736665722063616c6c6572206973206e6f74206f60008201527f776e6572206e6f7220617070726f766564000000000000000000000000000000602082015250565b60006124d9603183611d7d565b91506124e48261247d565b604082019050919050565b60006020820190508181036000830152612508816124cc565b9050919050565b7f4552433732313a206f776e657220717565727920666f72206e6f6e657869737460008201527f656e7420746f6b656e0000000000000000000000000000000000000000000000602082015250565b600061256b602983611d7d565b91506125768261250f565b604082019050919050565b6000602082019050818103600083015261259a8161255e565b9050919050565b7f4e487b7100000000000000000000000000000000000000000000000000000000600052601160045260246000fd5b60006125db82611e2d565b91506125e683611e2d565b9250828210156125f9576125f86125a1565b5b828203905092915050565b7f4552433732313a2062616c616e636520717565727920666f7220746865207a6560008201527f726f206164647265737300000000000000000000000000000000000000000000602082015250565b6000612660602a83611d7d565b915061266b82612604565b604082019050919050565b6000602082019050818103600083015261268f81612653565b9050919050565b7f4552433732313a20617070726f766520746f2063616c6c657200000000000000600082015250565b60006126cc601983611d7d565b91506126d782612696565b602082019050919050565b600060208201905081810360008301526126fb816126bf565b9050919050565b7f45524337323155524953746f726167653a2055524920717565727920666f722060008201527f6e6f6e6578697374656e7420746f6b656e000000000000000000000000000000602082015250565b600061275e603183611d7d565b915061276982612702565b604082019050919050565b6000602082019050818103600083015261278d81612751565b9050919050565b600081905092915050565b60006127aa82611d72565b6127b48185612794565b93506127c4818560208601611d8e565b80840191505092915050565b60006127dc828561279f565b91506127e8828461279f565b91508190509392505050565b7f416d6f756e74206973206c657373207468616e207469636b657420636f737400600082015250565b600061282a601f83611d7d565b9150612835826127f4565b602082019050919050565b600060208201905081810360008301526128598161281d565b9050919050565b600061286b82611e2d565b915061287683611e2d565b9250827fffffffffffffffffffffffffffffffffffffffffffffffffffffffffffffffff038211156128ab576128aa6125a1565b5b828201905092915050565b7f416c6c207469636b65747320736f6c64206f7574212121000000000000000000600082015250565b60006128ec601783611d7d565b91506128f7826128b6565b602082019050919050565b6000602082019050818103600083015261291b816128df565b9050919050565b7f4552433732313a206f70657261746f7220717565727920666f72206e6f6e657860008201527f697374656e7420746f6b656e0000000000000000000000000000000000000000602082015250565b600061297e602c83611d7d565b915061298982612922565b604082019050919050565b600060208201905081810360008301526129ad81612971565b9050919050565b7f4552433732313a207472616e73666572206f6620746f6b656e2074686174206960008201527f73206e6f74206f776e0000000000000000000000000000000000000000000000602082015250565b6000612a10602983611d7d565b9150612a1b826129b4565b604082019050919050565b60006020820190508181036000830152612a3f81612a03565b9050919050565b7f4552433732313a207472616e7366657220746f20746865207a65726f2061646460008201527f7265737300000000000000000000000000000000000000000000000000000000602082015250565b6000612aa2602483611d7d565b9150612aad82612a46565b604082019050919050565b60006020820190508181036000830152612ad181612a95565b9050919050565b7f4552433732313a207472616e7366657220746f206e6f6e20455243373231526560008201527f63656976657220696d706c656d656e7465720000000000000000000000000000602082015250565b6000612b34603283611d7d565b9150612b3f82612ad8565b604082019050919050565b60006020820190508181036000830152612b6381612b27565b9050919050565b7f4552433732314d657461646174613a2055524920717565727920666f72206e6f60008201527f6e6578697374656e7420746f6b656e0000000000000000000000000000000000602082015250565b6000612bc6602f83611d7d565b9150612bd182612b6a565b604082019050919050565b60006020820190508181036000830152612bf581612bb9565b9050919050565b7f4552433732313a206d696e7420746f20746865207a65726f2061646472657373600082015250565b6000612c32602083611d7d565b9150612c3d82612bfc565b602082019050919050565b60006020820190508181036000830152612c6181612c25565b9050919050565b7f4552433732313a20746f6b656e20616c7265616479206d696e74656400000000600082015250565b6000612c9e601c83611d7d565b9150612ca982612c68565b602082019050919050565b60006020820190508181036000830152612ccd81612c91565b9050919050565b7f45524337323155524953746f726167653a2055524920736574206f66206e6f6e60008201527f6578697374656e7420746f6b656e000000000000000000000000000000000000602082015250565b6000612d30602e83611d7d565b9150612d3b82612cd4565b604082019050919050565b60006020820190508181036000830152612d5f81612d23565b9050919050565b600081519050919050565b600082825260208201905092915050565b6000612d8d82612d66565b612d978185612d71565b9350612da7818560208601611d8e565b612db081611dc1565b840191505092915050565b6000608082019050612dd06000830187611ec2565b612ddd6020830186611ec2565b612dea6040830185611f58565b8181036060830152612dfc8184612d82565b905095945050505050565b600081519050612e1681611ce3565b92915050565b600060208284031215612e3257612e31611cad565b5b6000612e4084828501612e07565b91505092915050565b6000612e5482611e2d565b91507fffffffffffffffffffffffffffffffffffffffffffffffffffffffffffffffff821415612e8757612e866125a1565b5b600182019050919050565b7f4e487b7100000000000000000000000000000000000000000000000000000000600052601260045260246000fd5b6000612ecc82611e2d565b9150612ed783611e2d565b925082612ee757612ee6612e92565b5b828204905092915050565b6000612efd82611e2d565b9150612f0883611e2d565b925082612f1857612f17612e92565b5b828206905092915050565b7f4e487b7100000000000000000000000000000000000000000000000000000000600052603260045260246000fdfea2646970667358221220826b6a63b7322687edfd2535eec8ca205096fe2f54f6b5dd9bfca23d8a9a073964736f6c63430008090033",
  "immutableReferences": {},
  "source": "// contracts/GameItem.sol\n// SPDX-License-Identifier: MIT\npragma solidity ^0.8.0;\n\nimport \"../node_modules/openzeppelin-solidity/contracts/token/ERC721/extensions/ERC721URIStorage.sol\";\nimport \"../node_modules/openzeppelin-solidity/contracts/utils/Counters.sol\";\n\ncontract EventNFT is ERC721URIStorage {\n    \n    using Counters for Counters.Counter;\n    Counters.Counter private _tokenIds;\n    \n    uint private _maxTicketsCount;\n    string private _tokenURI;\n    address payable _owner;\n    uint _ticketCost;\n    uint noOfEvents;\n    \n    modifier minimumAmmountSent(uint amount) {\n        require(amount >= _ticketCost, 'Amount is less than ticket cost');\n        _;\n    }\n    \n    modifier onlyOwner {\n        require(msg.sender == _owner, 'Only owner can perform this operation');\n        _;\n    }\n    \n    constructor(uint maxTicketsCount, uint singleTicketCost, string memory tokenURI, string memory eventName, string memory eventSymbol) \n    ERC721(eventName, eventSymbol) {\n        _maxTicketsCount = maxTicketsCount;\n        _ticketCost = singleTicketCost * 1000000000000000000; // convert to wei\n        _tokenURI = tokenURI;\n        _owner = payable(msg.sender);\n    }\n    \n    function totalTickets() public view virtual returns (uint) {\n        return _maxTicketsCount;\n    }\n    \n    function ticketCost() public view virtual returns (uint) {\n        return _ticketCost;\n    }\n    \n    function ticketsLeft() public view virtual returns (uint) {\n        return _maxTicketsCount - _tokenIds.current();\n    }\n    \n    function getTicketInfo() public view virtual returns (string memory) {\n        return _tokenURI;\n    }\n    \n    function buyTicket() minimumAmmountSent(msg.value) public payable returns (uint)\n    {\n        _tokenIds.increment();\n        \n        uint newItemId = _tokenIds.current();\n        \n        if(newItemId > _maxTicketsCount + 1) revert(\"All tickets sold out!!!\");\n        \n        _mint(msg.sender, newItemId);\n        _setTokenURI(newItemId, _tokenURI);\n        \n        uint refund = msg.value - _ticketCost;\n\n        payable(msg.sender).transfer(refund);\n        \n        payable(_owner).transfer(_ticketCost);\n        \n        return newItemId;\n    }\n}",
  "sourcePath": "/Users/admin/Desktop/Projects/hackathon/event-nft/event-contract/contracts/EventNFT.sol",
  "compiler": {
    "name": "solc",
    "version": "0.8.9+commit.e5eed63a.Emscripten.clang"
  },
  "schemaVersion": "3.4.3",
  "updatedAt": "2021-11-07T15:01:36.369Z",
  "networkType": "ethereum",
  "devdoc": {
    "kind": "dev",
    "methods": {
      "approve(address,uint256)": {
        "details": "See {IERC721-approve}."
      },
      "balanceOf(address)": {
        "details": "See {IERC721-balanceOf}."
      },
      "getApproved(uint256)": {
        "details": "See {IERC721-getApproved}."
      },
      "isApprovedForAll(address,address)": {
        "details": "See {IERC721-isApprovedForAll}."
      },
      "name()": {
        "details": "See {IERC721Metadata-name}."
      },
      "ownerOf(uint256)": {
        "details": "See {IERC721-ownerOf}."
      },
      "safeTransferFrom(address,address,uint256)": {
        "details": "See {IERC721-safeTransferFrom}."
      },
      "safeTransferFrom(address,address,uint256,bytes)": {
        "details": "See {IERC721-safeTransferFrom}."
      },
      "setApprovalForAll(address,bool)": {
        "details": "See {IERC721-setApprovalForAll}."
      },
      "supportsInterface(bytes4)": {
        "details": "See {IERC165-supportsInterface}."
      },
      "symbol()": {
        "details": "See {IERC721Metadata-symbol}."
      },
      "tokenURI(uint256)": {
        "details": "See {IERC721Metadata-tokenURI}."
      },
      "transferFrom(address,address,uint256)": {
        "details": "See {IERC721-transferFrom}."
      }
    },
    "version": 1
  },
  "userdoc": {
    "kind": "user",
    "methods": {},
    "version": 1
  }
}