{
  "contractName": "EventNFT",
  "abi": [
    {
      "inputs": [],
      "stateMutability": "nonpayable",
      "type": "constructor"
    },
    {
      "anonymous": false,
      "inputs": [
        {
          "indexed": true,
          "internalType": "address",
          "name": "owner",
          "type": "address"
        },
        {
          "indexed": true,
          "internalType": "address",
          "name": "spender",
          "type": "address"
        },
        {
          "indexed": false,
          "internalType": "uint256",
          "name": "value",
          "type": "uint256"
        }
      ],
      "name": "Approval",
      "type": "event"
    },
    {
      "anonymous": false,
      "inputs": [
        {
          "indexed": true,
          "internalType": "address",
          "name": "from",
          "type": "address"
        },
        {
          "indexed": true,
          "internalType": "address",
          "name": "to",
          "type": "address"
        },
        {
          "indexed": false,
          "internalType": "uint256",
          "name": "value",
          "type": "uint256"
        }
      ],
      "name": "Transfer",
      "type": "event"
    },
    {
      "inputs": [
        {
          "internalType": "address",
          "name": "owner",
          "type": "address"
        },
        {
          "internalType": "address",
          "name": "spender",
          "type": "address"
        }
      ],
      "name": "allowance",
      "outputs": [
        {
          "internalType": "uint256",
          "name": "",
          "type": "uint256"
        }
      ],
      "stateMutability": "view",
      "type": "function",
      "constant": true
    },
    {
      "inputs": [
        {
          "internalType": "address",
          "name": "spender",
          "type": "address"
        },
        {
          "internalType": "uint256",
          "name": "amount",
          "type": "uint256"
        }
      ],
      "name": "approve",
      "outputs": [
        {
          "internalType": "bool",
          "name": "",
          "type": "bool"
        }
      ],
      "stateMutability": "nonpayable",
      "type": "function"
    },
    {
      "inputs": [
        {
          "internalType": "address",
          "name": "account",
          "type": "address"
        }
      ],
      "name": "balanceOf",
      "outputs": [
        {
          "internalType": "uint256",
          "name": "",
          "type": "uint256"
        }
      ],
      "stateMutability": "view",
      "type": "function",
      "constant": true
    },
    {
      "inputs": [],
      "name": "decimals",
      "outputs": [
        {
          "internalType": "uint8",
          "name": "",
          "type": "uint8"
        }
      ],
      "stateMutability": "view",
      "type": "function",
      "constant": true
    },
    {
      "inputs": [
        {
          "internalType": "address",
          "name": "spender",
          "type": "address"
        },
        {
          "internalType": "uint256",
          "name": "subtractedValue",
          "type": "uint256"
        }
      ],
      "name": "decreaseAllowance",
      "outputs": [
        {
          "internalType": "bool",
          "name": "",
          "type": "bool"
        }
      ],
      "stateMutability": "nonpayable",
      "type": "function"
    },
    {
      "inputs": [
        {
          "internalType": "address",
          "name": "spender",
          "type": "address"
        },
        {
          "internalType": "uint256",
          "name": "addedValue",
          "type": "uint256"
        }
      ],
      "name": "increaseAllowance",
      "outputs": [
        {
          "internalType": "bool",
          "name": "",
          "type": "bool"
        }
      ],
      "stateMutability": "nonpayable",
      "type": "function"
    },
    {
      "inputs": [],
      "name": "name",
      "outputs": [
        {
          "internalType": "string",
          "name": "",
          "type": "string"
        }
      ],
      "stateMutability": "view",
      "type": "function",
      "constant": true
    },
    {
      "inputs": [],
      "name": "symbol",
      "outputs": [
        {
          "internalType": "string",
          "name": "",
          "type": "string"
        }
      ],
      "stateMutability": "view",
      "type": "function",
      "constant": true
    },
    {
      "inputs": [],
      "name": "totalSupply",
      "outputs": [
        {
          "internalType": "uint256",
          "name": "",
          "type": "uint256"
        }
      ],
      "stateMutability": "view",
      "type": "function",
      "constant": true
    },
    {
      "inputs": [
        {
          "internalType": "address",
          "name": "recipient",
          "type": "address"
        },
        {
          "internalType": "uint256",
          "name": "amount",
          "type": "uint256"
        }
      ],
      "name": "transfer",
      "outputs": [
        {
          "internalType": "bool",
          "name": "",
          "type": "bool"
        }
      ],
      "stateMutability": "nonpayable",
      "type": "function"
    },
    {
      "inputs": [
        {
          "internalType": "address",
          "name": "sender",
          "type": "address"
        },
        {
          "internalType": "address",
          "name": "recipient",
          "type": "address"
        },
        {
          "internalType": "uint256",
          "name": "amount",
          "type": "uint256"
        }
      ],
      "name": "transferFrom",
      "outputs": [
        {
          "internalType": "bool",
          "name": "",
          "type": "bool"
        }
      ],
      "stateMutability": "nonpayable",
      "type": "function"
    },
    {
      "inputs": [],
      "name": "MintNew",
      "outputs": [],
      "stateMutability": "nonpayable",
      "type": "function"
    },
    {
      "inputs": [],
      "name": "payOther",
      "outputs": [],
      "stateMutability": "payable",
      "type": "function",
      "payable": true
    }
  ],
  "bytecode": "0x608060405234801561001057600080fd5b506040518060400160405280600481526020016315195cdd60e21b815250604051806040016040528060038152602001621514d560ea1b815250816003908051906020019061006092919061008e565b50805161007490600490602084019061008e565b5050600580546001600160a01b0319163317905550610162565b82805461009a90610127565b90600052602060002090601f0160209004810192826100bc5760008555610102565b82601f106100d557805160ff1916838001178555610102565b82800160010185558215610102579182015b828111156101025782518255916020019190600101906100e7565b5061010e929150610112565b5090565b5b8082111561010e5760008155600101610113565b600181811c9082168061013b57607f821691505b6020821081141561015c57634e487b7160e01b600052602260045260246000fd5b50919050565b610abb806101716000396000f3fe6080604052600436106100c25760003560e01c8063313ce5671161007f57806395d89b411161005957806395d89b41146101f2578063a457c2d714610207578063a9059cbb14610227578063dd62ed3e1461024757600080fd5b8063313ce56714610180578063395093511461019c57806370a08231146101bc57600080fd5b806306fdde03146100c7578063095ea7b3146100f257806318160ddd146101225780631a1a2e121461014157806323b872dd1461015857806327e86be314610178575b600080fd5b3480156100d357600080fd5b506100dc61028d565b6040516100e991906108f8565b60405180910390f35b3480156100fe57600080fd5b5061011261010d366004610969565b61031f565b60405190151581526020016100e9565b34801561012e57600080fd5b506002545b6040519081526020016100e9565b34801561014d57600080fd5b50610156610335565b005b34801561016457600080fd5b50610112610173366004610993565b61034a565b6101566103f9565b34801561018c57600080fd5b50604051601281526020016100e9565b3480156101a857600080fd5b506101126101b7366004610969565b610435565b3480156101c857600080fd5b506101336101d73660046109cf565b6001600160a01b031660009081526020819052604090205490565b3480156101fe57600080fd5b506100dc610471565b34801561021357600080fd5b50610112610222366004610969565b610480565b34801561023357600080fd5b50610112610242366004610969565b610519565b34801561025357600080fd5b506101336102623660046109f1565b6001600160a01b03918216600090815260016020908152604080832093909416825291909152205490565b60606003805461029c90610a24565b80601f01602080910402602001604051908101604052809291908181526020018280546102c890610a24565b80156103155780601f106102ea57610100808354040283529160200191610315565b820191906000526020600020905b8154815290600101906020018083116102f857829003601f168201915b5050505050905090565b600061032c338484610526565b50600192915050565b61034833683635c9adc5dea0000061064a565b565b6000610357848484610729565b6001600160a01b0384166000908152600160209081526040808320338452909152902054828110156103e15760405162461bcd60e51b815260206004820152602860248201527f45524332303a207472616e7366657220616d6f756e74206578636565647320616044820152676c6c6f77616e636560c01b60648201526084015b60405180910390fd5b6103ee8533858403610526565b506001949350505050565b6005546040516001600160a01b03909116903480156108fc02916000818181858888f19350505050158015610432573d6000803e3d6000fd5b50565b3360008181526001602090815260408083206001600160a01b0387168452909152812054909161032c91859061046c908690610a5f565b610526565b60606004805461029c90610a24565b3360009081526001602090815260408083206001600160a01b0386168452909152812054828110156105025760405162461bcd60e51b815260206004820152602560248201527f45524332303a2064656372656173656420616c6c6f77616e63652062656c6f77604482015264207a65726f60d81b60648201526084016103d8565b61050f3385858403610526565b5060019392505050565b600061032c338484610729565b6001600160a01b0383166105885760405162461bcd60e51b8152602060048201526024808201527f45524332303a20617070726f76652066726f6d20746865207a65726f206164646044820152637265737360e01b60648201526084016103d8565b6001600160a01b0382166105e95760405162461bcd60e51b815260206004820152602260248201527f45524332303a20617070726f766520746f20746865207a65726f206164647265604482015261737360f01b60648201526084016103d8565b6001600160a01b0383811660008181526001602090815260408083209487168084529482529182902085905590518481527f8c5be1e5ebec7d5bd14f71427d1e84f3dd0314c0f7b2291e5b200ac8c7c3b925910160405180910390a3505050565b6001600160a01b0382166106a05760405162461bcd60e51b815260206004820152601f60248201527f45524332303a206d696e7420746f20746865207a65726f20616464726573730060448201526064016103d8565b80600260008282546106b29190610a5f565b90915550506001600160a01b038216600090815260208190526040812080548392906106df908490610a5f565b90915550506040518181526001600160a01b038316906000907fddf252ad1be2c89b69c2b068fc378daa952ba7f163c4a11628f55a4df523b3ef9060200160405180910390a35050565b6001600160a01b03831661078d5760405162461bcd60e51b815260206004820152602560248201527f45524332303a207472616e736665722066726f6d20746865207a65726f206164604482015264647265737360d81b60648201526084016103d8565b6001600160a01b0382166107ef5760405162461bcd60e51b815260206004820152602360248201527f45524332303a207472616e7366657220746f20746865207a65726f206164647260448201526265737360e81b60648201526084016103d8565b6001600160a01b038316600090815260208190526040902054818110156108675760405162461bcd60e51b815260206004820152602660248201527f45524332303a207472616e7366657220616d6f756e7420657863656564732062604482015265616c616e636560d01b60648201526084016103d8565b6001600160a01b0380851660009081526020819052604080822085850390559185168152908120805484929061089e908490610a5f565b92505081905550826001600160a01b0316846001600160a01b03167fddf252ad1be2c89b69c2b068fc378daa952ba7f163c4a11628f55a4df523b3ef846040516108ea91815260200190565b60405180910390a350505050565b600060208083528351808285015260005b8181101561092557858101830151858201604001528201610909565b81811115610937576000604083870101525b50601f01601f1916929092016040019392505050565b80356001600160a01b038116811461096457600080fd5b919050565b6000806040838503121561097c57600080fd5b6109858361094d565b946020939093013593505050565b6000806000606084860312156109a857600080fd5b6109b18461094d565b92506109bf6020850161094d565b9150604084013590509250925092565b6000602082840312156109e157600080fd5b6109ea8261094d565b9392505050565b60008060408385031215610a0457600080fd5b610a0d8361094d565b9150610a1b6020840161094d565b90509250929050565b600181811c90821680610a3857607f821691505b60208210811415610a5957634e487b7160e01b600052602260045260246000fd5b50919050565b60008219821115610a8057634e487b7160e01b600052601160045260246000fd5b50019056fea264697066735822122003bd18ad4cb447f3508ad0c59e9288bb1eba3d055a9fdbcab48255fdc2fb8be864736f6c63430008090033",
  "immutableReferences": {},
  "source": "// contracts/GameItem.sol\n// SPDX-License-Identifier: MIT\npragma solidity ^0.8.0;\n\nimport \"../node_modules/openzeppelin-solidity/contracts/token/ERC20/ERC20.sol\";\n\ncontract EventNFT is ERC20 {\n    \n    address _owner;\n    \n    constructor() \n    ERC20('Test', 'TST') {\n        _owner = msg.sender;\n    }\n    \n    function MintNew() public virtual {\n        _mint(msg.sender, 1000 * 1000000000000000000);\n    }\n    \n    function payOther() payable public virtual {\n        payable(_owner).transfer(msg.value);\n    }\n}",
  "sourcePath": "/Users/admin/Desktop/Projects/hackathon/event-nft/event-contract/contracts/EventNFT.sol",
  "compiler": {
    "name": "solc",
    "version": "0.8.9+commit.e5eed63a.Emscripten.clang"
  },
  "schemaVersion": "3.4.3",
  "updatedAt": "2021-11-11T23:06:11.687Z",
  "networkType": "ethereum",
  "devdoc": {
    "kind": "dev",
    "methods": {
      "allowance(address,address)": {
        "details": "See {IERC20-allowance}."
      },
      "approve(address,uint256)": {
        "details": "See {IERC20-approve}. Requirements: - `spender` cannot be the zero address."
      },
      "balanceOf(address)": {
        "details": "See {IERC20-balanceOf}."
      },
      "decimals()": {
        "details": "Returns the number of decimals used to get its user representation. For example, if `decimals` equals `2`, a balance of `505` tokens should be displayed to a user as `5.05` (`505 / 10 ** 2`). Tokens usually opt for a value of 18, imitating the relationship between Ether and Wei. This is the value {ERC20} uses, unless this function is overridden; NOTE: This information is only used for _display_ purposes: it in no way affects any of the arithmetic of the contract, including {IERC20-balanceOf} and {IERC20-transfer}."
      },
      "decreaseAllowance(address,uint256)": {
        "details": "Atomically decreases the allowance granted to `spender` by the caller. This is an alternative to {approve} that can be used as a mitigation for problems described in {IERC20-approve}. Emits an {Approval} event indicating the updated allowance. Requirements: - `spender` cannot be the zero address. - `spender` must have allowance for the caller of at least `subtractedValue`."
      },
      "increaseAllowance(address,uint256)": {
        "details": "Atomically increases the allowance granted to `spender` by the caller. This is an alternative to {approve} that can be used as a mitigation for problems described in {IERC20-approve}. Emits an {Approval} event indicating the updated allowance. Requirements: - `spender` cannot be the zero address."
      },
      "name()": {
        "details": "Returns the name of the token."
      },
      "symbol()": {
        "details": "Returns the symbol of the token, usually a shorter version of the name."
      },
      "totalSupply()": {
        "details": "See {IERC20-totalSupply}."
      },
      "transfer(address,uint256)": {
        "details": "See {IERC20-transfer}. Requirements: - `recipient` cannot be the zero address. - the caller must have a balance of at least `amount`."
      },
      "transferFrom(address,address,uint256)": {
        "details": "See {IERC20-transferFrom}. Emits an {Approval} event indicating the updated allowance. This is not required by the EIP. See the note at the beginning of {ERC20}. Requirements: - `sender` and `recipient` cannot be the zero address. - `sender` must have a balance of at least `amount`. - the caller must have allowance for ``sender``'s tokens of at least `amount`."
      }
    },
    "version": 1
  },
  "userdoc": {
    "kind": "user",
    "methods": {},
    "version": 1
  }
}